:020000040800F2
:10000000F808002041020008D7350008AB2F00088F
:10001000D5350008AD1500086B3F00080000000052
:10002000000000000000000000000000F93A000895
:10003000A51600080000000089390008FB3A0008F6
:100040005B0200085B0200085B0200085B0200081C
:100050005B0200085B0200085B0200085B0200080C
:100060005B0200085B0200085B0200085B020008FC
:100070005B0200085B0200085B0200085B020008EC
:100080005B0200085B0200085B0200085B020008DC
:100090005B0200085B0200085B0200085B020008CC
:1000A0005B020008A53B00085B0200085B02000839
:1000B0005B0200085B020008B13B00085B0200081D
:1000C0005B0200085B0200085B0200085B0200089C
:1000D0005B0200085B0200085B0200085B0200088C
:1000E0005B0200085B0200085B0200085B0200087C
:1000F0005B0200085B0200085B0200085B0200086C
:100100005B0200085B0200085B0200085B0200085B
:100110005B0200085B0200085B020008BD3B0008B0
:100120005B0200085B0200085B0200085B0200083B
:100130005B0200085B0200085B0200085B0200082B
:100140005B0200085B0200085B0200085B0200081B
:100150005B0200085B0200085B0200085B0200080B
:100160005B0200085B0200085B0200085B020008FB
:100170005B0200085B0200085B0200080000000050
:100180005B0200085B02000800F002F800F049F88A
:100190000AA090E8000C82448344AAF10107DA45E2
:1001A00001D100F03EF8AFF2090EBAE80F0013F0EB
:1001B000010F18BFFB1A43F0010318479C530000BE
:1001C000BC530000103A24BF78C878C1FAD852074F
:1001D00024BF30C830C144BF04680C6070470000C1
:1001E0000023002400250026103A28BF78C1FBD840
:1001F000520728BF30C148BF0B607047662904F022
:100200002780002070471FB504F01DF800F0C8FBE0
:1002100004000020002103F089FFE0601FBD10B53D
:1002200010BD00F0B9FC1146FFF7EDFF03F0DEFE54
:1002300000F0D7FC03B4FFF7F2FF03BC00F018FD99
:100240000948804709480047FEE7FEE7FEE7FEE76A
:10025000FEE7FEE7FEE7FEE7FEE7FEE704480549A6
:10026000054A064B70470000953B000889010008CD
:10027000F8020020F8080020F8040020F80400200C
:1002800053EA020C00F069802DE9F04B4FF00006B4
:10029000002B1FBFB3FA83F503FA05F424FA05F621
:1002A0005E4012BF1643B2FA82F502FA05F4C5F1B8
:1002B00020051EBF22FA05FC44EA0C04203556EA4C
:1002C000044C4FEA144418BF641C4FF000084FF070
:1002D0000009904271EB030C39D3002919BFB1FA20
:1002E00081F701FA07F6B0FA80F700FA07F6C7F1CE
:1002F00020071EBF20FA07FC46EA0C062037B6FB93
:10030000F4FCA7EB0507103F07F01F0BCBF120060D
:100310000CFA0BFB2CFA06F644BFB3460026202F3E
:10032000A4BF5E464FF0000B5BEA060C08BF4FF01F
:10033000010B19EB0B09ABFB027C48EB0608C01B59
:1003400006FB02CC0BFB03CC71EB0C01C1E70B46A7
:10035000024641464846BDE8F08B13B54FF0000019
:100360004FF00001AFF30080BDE81C407047000073
:100370000FB41CB5074B06AA7B446946009005984C
:1003800000F0F5FA0020694600F004FB1CBC5DF8A3
:1003900014FB00001906000070B50446856900686A
:1003A000C10601D5302600E02026C00707D070BD69
:1003B000D4E9012130469047206A401C20626D1E1E
:1003C000F6D570BD70B5044685690078C00707D1C1
:1003D00070BDD4E9012120209047206A401C206292
:1003E0006D1EF6D570BD2DE9F0474FF0000A894625
:1003F0000446C0F820A02046E1688847002876D04F
:10040000252806D0D4E901219047206A401C2062AB
:10041000F1E7E168204600258847C4F81CA006469D
:100420000027C4F818A02A2E09D0304603F0D0FDCA
:1004300038B304EB8708303EC8F8186019E059F863
:10044000041B204604EB87029161E1688847012F75
:10045000064618D1E069002820DA25F020051DE0C5
:10046000D8F8180000EB800006EB40003038C8F8E0
:1004700018002046E1688847064603F0A9FD0028D9
:10048000EED1012F0AD02E2E08D12046E1688847F0
:100490007F1C0646022F45F02005C4DBA06900281A
:1004A00003DA404245F00105A061E80701D025F0DC
:1004B0001005B6B1A6F14100192802D8203645F43E
:1004C00000654A463146204625604D46FFF796FEB8
:1004D00058B1012806D0ED1D25F0070000F10809EC
:1004E00089E704E005F1040985E730468AE7206AD8
:1004F000BDE8F0874FF0000200B5134694469646DB
:10050000203922BFA0E80C50A0E80C50B1F1200126
:10051000BFF4F7AF090728BFA0E80C5048BF0CC0D4
:100520005DF804EB890028BF40F8042B08BF704732
:1005300048BF20F8022B11F0804F18BF00F8012BA4
:10054000704770477047704770472DE9FF4F0C4662
:100550001E464FF0FF378BB0D2E90001DDF8608016
:100560000A908A46C1F30A5505B93D46002108465E
:100570004FF00000BAF1000F00F4400005DA00EB84
:1005800080004FF4400101EA50004FEA9059B9F160
:10059000010F00DDB9460A9850EA4A000ED044F631
:1005A0001050A5F2FF3545432F14B8F1000F1ED0AF
:1005B0007542291E1EDDC9F100021CE0B8F1010FD1
:1005C0004FF0000001D0302103E0F24305E0215458
:1005D000401CB042FBDB30460022002121540B9925
:1005E000C1F80880C1E900200FB0BDE8F08FBD1B45
:1005F0006D1CDEE74A4600DA694206A800F05AFAA6
:1006000006AB93E8070003AB83E8070050460A995E
:1006100000F035FB8DE80700A0F500501F38009072
:100620000398002D09DD42F21F014A46084403A940
:100630000390684600F094FD08E0A0F500504A469B
:100640001F3803A90390684600F09EFD8DE807005F
:100650000004000C03D04FF0FF30410800E01046CA
:10066000B8F1000F03D00022009215461EE0751E5F
:1006700005D400F099F9303262556D1EF9D5B346B4
:100680000122084302D000227F1C04E02078302899
:1006900001D100227F1E002A099786D01DE0112D6E
:1006A00007DA00F081F9303262556D1C50EA010220
:1006B000F5D1084302D00098C8B10EE00021681EB1
:1006C00005E0235C625C63542254401E491C814255
:1006D000F7DBAB46A81B401E0990002004F80B0076
:1006E0000B98099AC0F80880C0E9002B7CE7112616
:1006F0004FF0000859E72DE9F04F88460446D21D17
:1007000022F0070191B0D1E90001CDE90A0103F01F
:1007100037FC02460B98C00F01D02D2007E020685F
:10072000810701D52B2002E0202101EAC000032A25
:10073000099001D0072A05DB03464146204600F018
:1007400079F90BE12078800601D5E06900E0062008
:10075000B8F1650F814606D0B8F1660F18D0B8F130
:10076000670F70D131E00020B9F1110F009001DB6B
:10077000112301E009F101030AAA01A90CA8FFF75E
:10078000E4FEDDE90C70002609F10105834647E02F
:1007900001204B4600904FF000470AAA01A90CA87F
:1007A000FFF7D3FEDDE90DB00C995D46002610B9C8
:1007B00009F101000D18B9EB050003D4C0F1FF36B3
:1007C00009F10105A5EB09002BE0B9F1010F01DAF0
:1007D0004FF001090020B9F1110F0090484601DDEA
:1007E000112300E003460AAA01A90CA8FFF7ADFEF9
:1007F000DDE90C704D4600268346207800070AD4B8
:10080000AB4500DA5D4601A8012D04DD411911F860
:10081000011C302907D04F4502DA17F1040F04DA22
:10082000012082460FE06D1EEEE7002F02DCED1B7B
:100830003E4403E0781CA84200DD7D1CB81B00F19B
:10084000010A4FF000472078000703D4AA4501DBD6
:100850004FF0FF3A0021B7F1004F0DF143088DF83A
:10086000431024D002202B23002F01DA7F422D23B6
:100870000A21021EA0F1010000DC5FB197FBF1FC30
:1008800097FBF1F201FB1C7C17460CF1300C08F8C9
:1008900001CDEEE7A8F1010003702188090501D51B
:1008A000452100E06521A0F1010800F8011C09982C
:1008B0000FA9A1EB0807FF1D00B10120411901EBB1
:1008C000EA70A1693844081A401EA0612078C00669
:1008D00002D42046FFF760FD099828B1D4E9012130
:1008E0009047206A401C20622078C00622D520460E
:1008F000FFF752FD1EE0002E04DBB34502DD01A828
:10090000805D00E03020D4E901219047206A401C3E
:100910002062761CAAF101005FEA000A0AD100F009
:100920003FF8C0680168405CD4E901219047206A23
:10093000401C2062281EA5F10105DCDC07E0D4E99B
:10094000012118F8010B9047206A401C2062381ED4
:10095000A7F10107F3DC2046FFF734FD032011B0B7
:1009600043E6000001694A1C02610878704700B53F
:100970008FB0CDE901310021059105497944CDE9D8
:10098000031011466846FFF72EFD0FB000BD0000B2
:10099000E5FFFFFF0A6802F8010B0A6070470000DC
:1009A00000487047B402002030B5B0F10A024FEAA7
:1009B000900E71F100034EEA817EB0EB0E0061EB08
:1009C00091014FEA101E4EEA017E10EB0E0041EB42
:1009D00011114FEA102E4EEA016E10EB0E0041EBA2
:1009E00011214FEA104E4EEA014E10EB0E0041EB82
:1009F0001141401841F100014FEAD00040EA417036
:100A00004FEAD10110EB80054FEA810444EA90746B
:100A100044EB01046D1944EB0404521BA3414FF055
:100A2000000348BF0A3200D530BD401C41F100012F
:100A300030BD00002DE9F0411F4604460326016841
:100A4000072A01F4006004DB08B116A505E016A52D
:100A500003E008B115A500E015A521F01000206005
:100A6000A069C01EA0610FB1401EA0612046FFF723
:100A700093FC4FB1D4E9012138469047206A401CCD
:100A80002062C01C206206E0206AFAE7D4E9012156
:100A900015F8010B9047761EF8D22046FFF792FC1E
:100AA000BDE8F0814E414E006E616E00494E460039
:100AB000696E66002DE9F047814616468AB03348D4
:100AC00078440DC88DE80D0030487844801C03AC94
:100AD0000DC884E80D0041F69B300844372190FB97
:100AE000F1F290FBF1F5A5F1800501FB12041B3C2E
:100AF00002D56442012000E00020DFF890A080468B
:100B00000027FA44AAF1BE0A0DE0E00709D03246F8
:100B1000684607EB47010AEB810100F035FB8DE8E1
:100B2000070064107F1C002CEFD1184F7F44AC3FAE
:100B300018E0E80714D007EB04100DF1180A90E84C
:100B40000E008AE80E00C068F04201D198190890A2
:100B5000324606A903A800F017FB03AB83E80700A1
:100B60006D10641C002DE4D132466946B8F1000FC7
:100B700003A802D000F0F4FA01E000F005FBC9E997
:100B80000001C9F808200AB0BDE8F0877C4A0000DF
:100B900000487047940200207546FFF7F9FFAE4603
:100BA00005006946534620F00700854618B020B579
:100BB000FFF754FBBDE820404FF000064FF0000760
:100BC0004FF000084FF0000B21F00701AC46ACE8F5
:100BD000C009ACE8C009ACE8C009ACE8C0098D4662
:100BE00070470446AFF300802046FFF723FB000068
:100BF0004FF0013C50F8042B51F8043B9A4221D1AC
:100C0000A2EB0C03934313EACC1317D150F8042B37
:100C100051F8043B9A4215D1A2EB0C03934313EA1B
:100C2000CC130BD150F8042B51F8043B9A4209D154
:100C3000A2EB0C03934313EACC13DBD04FF000007C
:100C4000704700BFD01A01BAB1FA81F101F0180162
:100C500022FA01F0CB40C1F12001DBB2C0B2C01AD0
:100C60002CFA01F3D11A914311EAC311E6D170476E
:100C700001491820ABBEFEE72600020070475FEA7C
:100C8000400C08BF91F0000F4FEA8C234FEAC122BD
:100C900043EA51514FEA1C5018BF00F5F0404FEAAB
:100CA000300018BF41F000415FEA6C5C00F0298021
:100CB000BCF1FF3F08BF40F080407047130C06BFF7
:100CC00012044FF0100C4FF0000C130E04BF120270
:100CD0000CF1080C130F04BF12010CF1040C930F5C
:100CE00004BF92000CF1020CD30F04BF52000CF1B0
:100CF000010C11464FF00002A0F11F00A0EB0C0008
:100D0000704711F0004F08BF704731F000413FF4C9
:100D1000D5AF0B0C06BF09044FF0100C4FF0000CC0
:100D20000B0E04BF09020CF1080C0B0F04BF0901E4
:100D30000CF1040C8B0F04BF89000CF1020CCB0FDB
:100D400004BF49000CF1010CCCF12003A0EB0C0016
:100D500022FA03F302FA0CF241EA030100F1010066
:100D6000704720F07F4C80EA030023F07F47ACEB14
:100D7000070303F57C5300F0004003F1FF032DE966
:100D800080494FEA154B09B44FEA144325EA0B4E4C
:100D900024EA03480FF2042606EB132749083E789D
:100DA0005FEA320203FB0667C7F5000707FB06F69A
:100DB0004FEA54374FEAD64606F1020607FB066CA7
:100DC000CCF1005C4FEA1C472CEA074C07FB06F409
:100DD0000CFB06F504EB15464FEA961634BF0020CF
:100DE0004FF000404FEAD13706FB07FC4FEA1C4C9E
:100DF0000CFB0BF7D21B03FB0CF761EB07010CFBA1
:100E00000EF7B0EB074072EB17420CFB08F734BF4C
:100E1000A2EB0742B2EB074261EB17414FEA0C44E9
:100E20004FEA910706FB07FC4FEA1C4C0CFB0BF743
:100E3000B0EBC74072EB573203FB0CF734BFA2EBA9
:100E4000C742B2EBC74261EB57310CFB0EF7B0EB78
:100E5000C70072EB57720CFB08F734BFA2EBC70256
:100E6000B2EBC70261EB5771039F4FEA816141EA20
:100E7000921104EBCC044FEAD1374FEA826206FBB1
:100E800007FC42EA90124FEA80604FEA1C4C0CFBD0
:100E90000BF7D21B03FB0CF761EB07010CFB0EF702
:100EA000B0EB074072EB17420CFB08F734BFA2EB24
:100EB0000742B2EB074261EB17414FEA8C554FEA0C
:100EC000910704EB9C2406FB07FC4FEA1C4C0CFB2F
:100ED0000BF7B0EBC74072EB573203FB0CF734BF94
:100EE000A2EBC742B2EBC74261EB57310CFB0EF7E6
:100EF000B0EBC70072EB57720CFB08F734BFA2EBE4
:100F0000C702B2EBC70261EB577115EB4C254FEAF4
:100F1000816141EA92114FEA82624FEAD13742EA97
:100F2000901206FB07FC44F100044FEA80604FEA90
:100F30001C4C0CFB0BF7D21B03FB0CF761EB0701FE
:100F40000CFB0EF7B0EB074072EB17420CFB08F7F7
:100F500034BFA2EB0742B2EB074261EB174115EB3E
:100F60001C154FEA813141EA92414FEA823242EA4E
:100F700090424FEA80304FEA0C7644F1000448EA90
:100F800003434EEA0B484FF0000EB2EB080C71EB36
:100F9000030724BF624639464EEB0E0E4FF0000B9E
:100FA0000018524149414BEB0B0BB2EB080C71EBB3
:100FB00003077BF1000B24BF624639464EEB0E0E51
:100FC0004FF0000B0018524149414BEB0B0BB2EBB9
:100FD000080C71EB03077BF1000B24BF6246394616
:100FE0004EEB0E0E51EA020718BF46F0010616EB53
:100FF0000E7655F1000254F1000103D5BDE88901D8
:10100000BDE80088BDE88901BDE80048B619524135
:1010100041EB0101A3F10103704780807F7E7D7C5D
:101020007B7A7978777676757473727171706F6E7A
:101030006E6D6C6C6B6A6A69686867666665646425
:10104000636362616160605F5F5E5E5D5D5C5C5BAF
:101050005B5A5A595958585757565655555554541E
:10106000535352525251515050504F4F4F4E4E4D7C
:101070004D4D4C4C4C4B4B4B4A4A4A4949494848C8
:101080004847474747464646454545444444444308
:1010900043434342424242414141002B26D4770020
:1010A00021D01CB54FEA370703B44FF010004FF0C2
:1010B00010014FF000000FBCBDE810400BF1010B18
:1010C000BBF1010F08BF5FEA170722BF12F101024F
:1010D00011F101014FF0004143F1000300F0004025
:1010E00043EA00007047F9D35708DAE746EA0646B4
:1010F00013F1400F4FEA16461FDD13F1200FDFBF3B
:1011000016430A46002120335B42C8D0C3F12007B2
:1011100046EA064602FA07F74FEA164646EA070687
:10112000C3F1200722FA03F201FA07F721FA03F1CB
:101130004FF0000342EA0702B1E746EA020646EA38
:1011400006464FEA164646EA0106BCBF46EA064690
:10115000360C4FF000034FF000024FF000019EE705
:101160002DE9C048934630B491E8380007C831EA09
:10117000400C48BF34EA430C03D5FFF7F2FDFFF7FC
:101180008CFFF0BCBDE800882DE9C048934630B420
:1011900091E8380007C810F0804F08BF13F0804F67
:1011A00003D100F005F8FFF778FFF0BCBDE8008838
:1011B00020F07F4780EA030023F07F4C07EB0C030D
:1011C000A3F57C5300F00040A3F1FE0392F0000F62
:1011D00000F0B38095F0000F00F077802DE9014911
:1011E0004FEA11404FEA144621EA004800FB06FC92
:1011F00024EA064708FB06F607FB08F800FB07F79A
:1012000018EB06484CEB164C4FEA124B18EB07480C
:101210004FEA15464CEB174022EA0B4E0BFB06FC3F
:1012200025EA06470EFB06F607FB0EFE0BFB07F74B
:101230001EEB064E4CEB164C4FF000061EEB074E15
:101240004CEB174B18EB0B0840F1000018EB0E0BA2
:1012500058EB000840F100008F1A4FF000013CBF2E
:10126000C943661B14BFB5EB040C00213CBFC94346
:10127000F61B4FEA17444EEA8E0E27EA04454FEA62
:101280001C4704FB07622CEA074C05FB07F70CFB25
:1012900005F604FB0CFC16EB074642EB174216EB77
:1012A0000C4642EB1C421BEB060658EB0202414186
:1012B00046EA9E0601D5BDE80189B619524141EBC7
:1012C0000101A3F10103BDE801894FEA14454FEA8A
:1012D000114724EA054621EA074C05FB07F406FB03
:1012E00007F70CFB06F105FB0CFC11EB074144EB87
:1012F00017444FEA124711EB0C4144EB1C4422EA1D
:10130000074C05FB07F206FB07F70CFB06F605FB8F
:101310000CFC16EB074642EB174216EB0C4642EB71
:101320001C456A1854F1000148BF7047B619524174
:1013300041EB0101A3F10103704795F0000F37D095
:101340004FEA11424FEA144721EA024624EA074CC9
:1013500002FB07F106FB07F70CFB06F402FB0CFC93
:1013600014EB074441EB17414FEA154714EB0C44CB
:1013700041EB1C4125EA074C02FB07F506FB07F78A
:101380000CFB06F602FB0CFC16EB074645EB17457B
:1013900016EB0C4645EB1C42121951F1000148BFF7
:1013A0007047B619524141EB0101A3F101037047A7
:1013B0004FEA14454FEA114724EA054621EA074C53
:1013C00005FB07F106FB07F70CFB06F24FF00006E2
:1013D00005FB0CFC12EB074241EB174112EB0C42F0
:1013E00051EB1C4148BF7047921841EB0101A3F13A
:1013F0000103704710B50146806B026C12F0500F6C
:1014000005D0026CD20626D500F0F8F910BD016CAB
:1014100041F40071016401688A6812F0405F17D1DD
:10142000027EAAB9CA6A12F4700F02D08A68520505
:101430000ED44A6822F020024A60016C21F48071C7
:101440000164016CC90403D4016C41F00101016421
:1014500000F0D2F910BD806BC26CBDE810400846A8
:10146000104710B5806B40210164416C41F00401CC
:10147000416400F0C3F910BD10B5806B00F0BDF9F8
:1014800010BD0000464910B54A6822F440324A6057
:101490004A6843681A434A6001684A6822F48072C5
:1014A0004A6001684A68036942EA03224A600168A7
:1014B0004A6822F040724A6001684A6883681A43A9
:1014C0004A6001688A6822F400628A6001688A685A
:1014D000C3681A438A60816A6FF07062D142016802
:1014E0008A6822F070628A6001688A680CD0836A18
:1014F0001A438A6001688A6822F040528A60016853
:101500008A68C36A1A4301E022F040528A60016887
:101510008A6822F002028A6001688A68037E42EAD1
:1015200043028A6090F82010002901684A680FD0B1
:1015300042F400624A6001684A6822F460424A60EC
:1015400001684A68174C436A04EB43331A4301E0CD
:1015500022F400624A600168CA6A22F47002CA6218
:101560000168CA6A838B104C04EB03531A43CA62A6
:1015700001688A6822F400728A6001688A6890F8BB
:10158000303042EA43228A6001688A6822F480622D
:101590008A6001688A68406942EA8020886010BDDC
:1015A0000023014000E0FFFF0000F0FFFEE7000025
:1015B00030B5114B114A50B103EB400131F8023CF8
:1015C000322B02D25B1C21F8023C108012E0108802
:1015D00080B103EB4003094C33F8025C002024780F
:1015E00023F8020C0C70142D108001D3022030BDA2
:1015F000012030BD002030BD340200201C0000203E
:1016000001681823CAB2103AB2FBF3F2054B6FF32C
:101610000901032A9B5CC36500D9091D8165084641
:1016200070470000B44B000810B5014600208B69DC
:101630008A6A4FF0C07453B1B3F5005F15D072B130
:10164000012A0CD0022A0AD0032A09D104E01AB1D7
:10165000012A06D0022A03D1C96AC90100D5012096
:1016600010BDC96AA142FAD010BD002AF7D0012AE4
:10167000F2D0022AF3D0032AF3D010BD30B50468AB
:10168000256825F480252560046863608368402B05
:10169000036803D099600068C26030BD9A6000683A
:1016A000C16030BD704772B6FEE7000078B5002417
:1016B000009490F83C20012A19D0012280F83C20A7
:1016C0000A6807230568092A13D9EE680A3A02EB6B
:1016D000420293409E43EE600B788A680A3B03EB1C
:1016E00043039A400368DD682A43DA6010E0022071
:1016F00078BD2E6902EB420293409E432E610B7827
:101700008A6803EB43039A4003681D692A431A6100
:101710004A681F23072A13D205686E6B521E02EB1C
:10172000820293409E436E630B790A885B1E92B2DD
:1017300003EB83039A4003685D6B2A435A6327E0F7
:1017400005680D2A12D22E6BD21F02EB8202934043
:101750009E432E630B790A88DB1F92B203EB83034F
:101760009A4003681D6B2A431A6311E0EE6A0D3A32
:1017700002EB820293409E43EE620B790A880D3B96
:1017800092B203EB83039A400368DD6A2A43DA626C
:10179000164B0568144A9D4206D10D68122D03D1DF
:1017A000556845F48005556005689D4218D10B6861
:1017B000102B01D0112B13D1536843F40003536055
:1017C000096810290CD10A490A4A0968B1FBF2F1EB
:1017D00001EB8101490000E0491E00910029FBD185
:1017E00080F83C40002078BD0023014000200140EB
:1017F0001800002040420F0070477047704770B5D6
:1018000004004FF0000503D0206C002610B107E063
:10181000012070BD204600F01DF8666484F83C602D
:10182000206CC00610D4206C20F4885040F00200D8
:1018300020642046FFF726FE6664206C20F002003C
:1018400040F00100206400E0012584F83C60284657
:1018500070BD000070B586B0064614216846FEF7DC
:1018600049FE1D493068884234D11C480025016872
:1018700041F480710160006800F4807005901748A1
:101880001438016841F0010101600068694600F008
:1018900001000590502000900320CDE9010510487B
:1018A00000F070F9104C0F48C4E900050015A56060
:1018B000C4E90350400060618000A0614011C4E9A8
:1018C00007052046656200F0BBF808B1FFF7EBFEA4
:1018D000B463A66306B070BD0020014044380240E6
:1018E00000000240106402406C000020F8B504467D
:1018F00000200E46009094F83C10012907D00121E9
:1019000084F83C1021688B68DB0702D011E00220CC
:10191000F8BD8B6843F001038B604049404B096878
:10192000B1FBF3F101EB410100E0491E00910029F8
:10193000FBD121688B68DB0503D58B6823F48073AA
:101940008B6021688B68DB075DD0236C40F20165FA
:10195000AB4343F4807323644968490505D5216C82
:1019600021F4005141F480512164216CC90404D553
:10197000616C21F00601616400E0606484F83C0061
:10198000A16B2948274DC863A16B28480864A16B47
:101990002748C86421686FF0220008602068416809
:1019A00041F0806141602068816841F4807181600C
:1019B0002168134632464C31A06B00F0ABF86868E2
:1019C0001C49C006206806D0884224D1816811F0E5
:1019D000405F13D01FE08842F8D0174A904203D1ED
:1019E000D1F80423D206F1D0144A904213D1D1F891
:1019F000041301F01F011029E8D30CE0816841F0C5
:101A00008041816007E0206C40F010002064606C31
:101A100040F0010060640020F8BD000018000020C4
:101A200040420F0000230140F5130008791400081C
:101A30006314000800200140002101400022014001
:101A40002DE9F041044600F09FF906465CB1022002
:101A500084F83500002584F834502068016821F0AE
:101A6000010101600DE00120BDE8F08100F08CF97A
:101A7000801B052805D920206065032084F83500E7
:101A8000F2E720680068C007F0D12268116820489A
:101A90000140D4E901031843D4E903363343184322
:101AA00063691843A3691843E3691843236A184319
:101AB0000843616A042903D1D4E90B13194308438D
:101AC000106020684069666A20F0070130460E43C6
:101AD000012704280CD1A06A0643E06A40B12046E1
:101AE000FFF7A2FD20B14020606584F83570BAE7A9
:101AF000206846612046FFF783FD94F85C203F2173
:101B000091408160656584F835700020ACE7000085
:101B10003F8010F02DE9F0410446866D90F83400C6
:101B2000002501280DD0012084F8340094F8357088
:101B30000020012F07D084F8340002252846BDE894
:101B4000F0810220FBE7022784F8357060652046AB
:101B5000FFF794FD94F85C103F208840B060206847
:101B6000016841F016010160206C20B12068016815
:101B700041F0080101602068016841F00101016045
:101B8000DCE700002DE9F84FDFF8BCA100220125B9
:101B90000AF1040B03264FF00F090BF1040E00BFEE
:101BA0000B6805FA02F42340A34270D10F7907F0C5
:101BB0000307012F01D0022F16D187684FEA420890
:101BC00006FA08FC27EA0C07D1F80CC00CFA08FC4E
:101BD0004CEA070CC0F808C04768A7430C79C4F367
:101BE000001494403C4344600C79E443A4070AD0B9
:101BF000C4684FEA420C06FA0CF7BC438F6807FA38
:101C00000CF72743C7600C7904F00304022C12D1AF
:101C1000D40800EB840CDCF820405707FF0E09FACB
:101C200007F824EA0804D1F8108008FA07F848EA0F
:101C30000408CCF8208004684FEA420C06FA0CF73E
:101C4000BC430F7907F0030707FA0CF72743076037
:101C50004C6814F4403F70D03C4C276847F48047F0
:101C60002760246822F0030704F480440094384C71
:101C700007EB040CDCF8084897074FEA177809FAD5
:101C800008F7BC43334FB84202D1002724E054E0A8
:101C9000314FB84201D101271EE0304FB84201D187
:101CA000022719E02E4FB84201D1032714E02D4F2F
:101CB000B84201D104270FE02B4FB84201D10527CC
:101CC0000AE02A4FB84201D1062705E0284FB84262
:101CD00001D1072700E0082707FA08F72743CCF8C7
:101CE0000878DAF800405746D1F804C09C435FEA10
:101CF000CC3C00D51C433C60DBF800405F46D1F88B
:101D000004C09C435FEA8C3C00D51C433C60DEF879
:101D100000407746D1F804C09C435FEACC2C00D544
:101D20001C433C60084F0C373C68D1F804C09C430E
:101D30005FEA8C2C00D51C433C60521C102AFFF437
:101D40002FAFBDE8F88F0000003C0140443802404E
:101D50000030014000000240000402400008024040
:101D6000000C024000100240001402400018024023
:101D7000001C02400069084000D0012070470AB1F1
:101D8000816170470904FBE70148806870470000E3
:101D90000C0000200248816802781144816070477D
:101DA0000C0000200B4810B5016841F4007101607F
:101DB000016841F480610160016841F48071016053
:101DC000032000F06FF80F2000F006F800F024F870
:101DD000002010BD003C024070B50D4D04464FF48C
:101DE0007A712878B1FBF0F00A490968B1FBF0F08C
:101DF00000F0EAFA48B9102C07D200222146501E02
:101E000000F030F800206C6070BD012070BD000053
:101E10000C000020180000200A4808B5016841F4B1
:101E200080410160006800F4804000900548001F78
:101E3000016841F080510160006800F0805000901E
:101E400008BD000044380240002809DB00F01F02F2
:101E5000012191404009800000F1E020C0F800110C
:101E600070470000F0B40E4B1B680C46C3F302230E
:101E7000C3F10705042D00D90425191D072901D236
:101E8000002300E0DB1E012606FA05F1491E214071
:101E900099409E40761E16403143F0BC02F088B84F
:101EA0000CED00E0064900F0070208684FF6FF035A
:101EB000184040EA0220034A1043086070470000BF
:101EC0000CED00E00000FA052DE9F0470E46050094
:101ED00065D0DFF81481D8F80000F7B200F00700F1
:101EE000B04207D288F80070D8F8000000F0070070
:101EF000B04254D128683D4C810712D5400703D524
:101F0000206840F4E05020602878000703D520685E
:101F100040F4604020602068A96820F0F000084389
:101F200020602878C0072DD030496868083901281A
:101F300012D0022813D0032811D00968890700297C
:101F40002DDA216821F0030101432160FFF71CFF16
:101F5000814641F2883A0EE009688903EFE7096893
:101F60008901ECE7FFF710FFA0EB0901514502D909
:101F70000320BDE8F0872068696800F00C00B0EB32
:101F8000810FEFD1D8F80010404601F00701B142AF
:101F900007D90770006800F00700B04201D00120A7
:101FA000E7E72878400705D52068E96820F4E05085
:101FB000084320602878000706D52068296920F4A6
:101FC000604040EAC100206000F018F82168084A2B
:101FD000C1F30311515CC840064908600648006817
:101FE000FFF7FAFE0020C4E7003C02400838024038
:101FF000BC4B00081800002010000020154810B548
:10200000006810F00C02144813D04110042A0FD0BD
:10201000082A0ED10F4C241F2268236802F03F02C9
:102020005B0207D52068C0F38810A0FB010106E021
:10203000084610BD2168C1F38811A1FB00010023EF
:10204000FEF71EF92168C1F30141491C4900B0FBAC
:10205000F1F010BD083802400024F4002DE9F84FDB
:1020600004006ED02078DFF84C93C007A9F1040576
:102070004AD009F104000168C1F38101012908D0A7
:102080000068C0F3810002280AD1D9F8000040029C
:1020900006D52868800337D560680028E1D033E092
:1020A0006068B0F5803F10D0B0F5A02F286810D040
:1020B00020F480302860286820F480202860606840
:1020C000A8B1FFF761FE06460DE0286840F48030B5
:1020D000F4E740F480202860F7E700BFFFF754FEE4
:1020E000801B642873D828688003F7D50CE0FFF7BD
:1020F0004BFE064605E000BFFFF746FE801B642846
:10210000F0D828688003F7D42078DFF8AC82800705
:102110004FF0000A3ED5A748001D016811F00C0FD2
:1021200008D00068C0F3810002280BD1D9F8000064
:10213000400207D42868800716D5E068012800D13E
:1021400012E033E1E068B8B10120C8F80000FFF701
:102150001BFE064605E000BFFFF716FE801B0228A7
:10216000C0D828688007F7D52868216920F0F800D2
:1021700040EAC10028600DE0C8F800A0FFF704FEA7
:10218000064604E0FFF700FE801B02281FD82868DF
:102190008007F7D42078000722D5864F87486169E9
:1021A000703771B101210160FFF7EEFD064604E0D2
:1021B000FFF7EAFD801B022809D838688007F7D5A9
:1021C0000EE0C0F800A0FFF7DFFD064605E082E064
:1021D000FFF7DAFD801B02287DD838688007F7D426
:1021E0002078400768D5DFF8CCB100270BF13C0B15
:1021F000DBF80000C0000BD4DBF8001041F0805188
:10220000CBF80010DBF80000012700F080500090B0
:102210006B4E3068C00510D4306840F48070306078
:10222000FFF7B2FD009005E0FFF7AEFD0099401A00
:10223000022850D83068C005F6D55E4EA0686C36CE
:1022400001280FD00528306810D020F00100306040
:10225000306820F004003060A068B8B1FFF794FD4A
:1022600000900FE0306840F00100F4E740F0040017
:102270003060F7E7FFF788FD0099411A41F2883096
:10228000814266D830688007F4D50EE0FFF77CFD08
:10229000009007E0FFF778FD0099411A41F288307D
:1022A000814256D830688007F4D42FB1DBF8001093
:1022B00021F08051CBF80010A069C8B33D49091D39
:1022C0000968C1F3810102294AD00228504607D08B
:1022D000C8F8600000E03CE0FFF756FD04463BE034
:1022E0004746C8F86000FFF74FFD064605E000BF0F
:1022F000FFF74AFD801B02282BD828688001F7D4FD
:10230000D4E907010843A16A2E4A490802EB0141BA
:10231000626A41EA8211084394F82C1040EA016194
:10232000C9F8001001203866FFF72EFD044606E0CC
:102330003EE000BFFFF728FD001B022809D82868EF
:102340008001F7D534E000BFFFF71EFD001B022817
:1023500002D90320BDE8F88F28688001F4D427E073
:102360000128F7D0D9F80000E26900F48001914219
:102370001CD1226A00F03F01914217D147F6C0718B
:10238000626A0140B1EB821F10D1A26A4FF0FF33A5
:1023900000F4403103EB5202B1EB024F06D194F846
:1023A0002C1000F07060B0EB016F01D00120D1E77C
:1023B0000020CFE70438024000004742800E474229
:1023C000007000400000FFFF10B5401EB0F1807F9C
:1023D00001D3012010BD4FF0E02460610F21601790
:1023E00001F0E6FD0020A06107202061002010BD63
:1023F0007047704710B590F83C20012A22D0012286
:1024000080F83C20CA688C6822F4407222434C68F1
:1024100022F4806222430C6822F4006222430C6999
:1024200022F4805222434C6922F400522243C969AB
:10243000002322F480420A4301684A6480F83C3059
:10244000002010BD022010BD70B590F83C20012A7C
:1024500032D0012480F83C40022280F83D200368FD
:102460005A689D6822F070060A6832435A60134B1E
:1024700002689A4214D0B2F1804F11D0104B9A42A8
:102480000ED0104B9A420BD00F4B9A4208D00F4BF4
:102490009A4205D00E4B9A4202D00E4B9A4204D17A
:1024A000496825F080031943916080F83D40002180
:1024B00080F83C10084670BD022070BD000001404D
:1024C0000004004000080040000C004000040140EF
:1024D000004001400018004010B50446022249B1F6
:1024E00004290ED0082913D094F84500012816D0ED
:1024F000012010BD94F842000128F9D184F842204F
:102500000FE094F843000128F2D184F8432008E05A
:1025100094F844000128EBD184F8442001E084F8C9
:1025200045200422206801F0C0FB2068416C41F482
:102530000041416411492068884214D0B0F1804FB5
:1025400011D00F4988420ED00E4988420BD00E4957
:10255000884208D00D49884205D00D49884202D0F2
:102560000C49884204D1816801F00701062903D093
:10257000016841F001010160002010BD0000014030
:102580000004004000080040000C0040000401402E
:10259000004001400018004010B5040003D094F83A
:1025A0003D0010B107E0012010BD002084F83C0080
:1025B000204600F01FF8022084F83D00211D20680D
:1025C00001F002FB012084F8460084F83E0084F804
:1025D0003F0084F8400084F8410084F8420084F809
:1025E000430084F8440084F8450084F83D0000204E
:1025F00010BD000010B586B0044614216846FDF7F2
:1026000079FF35482268354982420ED1086840F08A
:10261000010008600868002200F001000590032115
:102620001920FFF71FFC192028E02C482C4B001F15
:102630009A4227D1016841F004010160006800F06E
:102640000400059025481438016841F00801016034
:102650000068032100F0080005909014009002200B
:10266000CDE902010190049069461E48FFF78AFAFD
:10267000002201211E20FFF7F5FB1E20FFF7E4FBDF
:1026800006B010BD184B9A4207D1016841F008010D
:102690000160006800F008001BE0144B9A420ED164
:1026A000016841F0200101600068002200F0200074
:1026B000059004213720FFF7D5FB3720DEE70C48D3
:1026C0008242DDD1086840F002000860086800F02E
:1026D00002000590D4E700000000014044380240A9
:1026E00000080040000C0240000C004000140040B4
:1026F0000004014090F83D10012901D001207047ED
:10270000022180F83D100168CA6842F00102CA60E7
:1027100000681149884214D0B0F1804F11D00F49A0
:1027200088420ED00E4988420BD00E49884208D00C
:102730000D49884205D00D49884202D00C49884293
:1027400004D1816801F00701062903D0016841F036
:1027500001010160002070470000014000040040BA
:1027600000080040000C004000040140004001400F
:102770000018004070B5044690F83C000025012880
:1027800017D0012684F83C60022084F83D002068C0
:10279000826822F0770222F47F4282600868502823
:1027A00038D00DDC20284FD005DC90B3102811D193
:1027B0004AE0022070BD302846D040280AD13BE0D4
:1027C00060282FD070280DD0B0F5805F03D0B0F511
:1027D000005F12D0012584F83D60002084F83C00A1
:1027E000284670BDCB68D1E90121206801F06AFA62
:1027F0002068816841F0770109E0CB68D1E90121C7
:10280000206801F05FFA2068816841F480418160AE
:10281000E1E719E0CA684968206801F027FB502108
:10282000206806E0CA684968206801F071FB6021F1
:10283000206801F051FACEE7CA684968206801F0C3
:1028400015FB40212068F4E7226801461046F0E7B6
:1028500000680649884207D1054800224188018066
:1028600002210448FFF78BBA7047000000080040BF
:1028700000000020000002402DE9F041054690F8DC
:102880003C0000260C46012810D0012085F83C00B1
:1028900072B1042A1CD0082A2CD00C2A50D0012650
:1028A000002085F83C003046BDE8F0810220FBE7BF
:1028B000D4E90012E368286801F0EAFA286881691F
:1028C00021F00C01816128688169A26811430FE041
:1028D000D4E90012E368286801F02CFB28688169BC
:1028E00021F44061816128688169A26841EA02217E
:1028F0008161D5E72868D4E9002C277B016A21F49F
:1029000080710162C169036A21F0030141EA0C018F
:1029100021F0F00C39074FF420674CEA116123F4E1
:10292000206307EA02221A43C16102622868C16972
:1029300021F00C01C1612868C169A268114328E037
:102940002868D4E90027E168036A23F4805303620E
:10295000D0F81CC0036A2CF4407C4CEA07274FF6E1
:10296000FF7C27F470470CEA013139434FF42047CC
:1029700023F4204307EA02321A43C1610262286845
:10298000C16921F44061C1612868C169A26841EA56
:102990000221C16184E710B5040003D094F83D0022
:1029A00010B107E0012010BD002084F83C00204653
:1029B00000F01EF8022084F83D00211D206801F07F
:1029C00003F9012084F8460084F83E0084F83F00B3
:1029D00084F8400084F8410084F8420084F8430001
:1029E00084F8440084F8450084F83D00002010BDC0
:1029F0007047000030B50446002551B104290DD0C0
:102A0000082910D094F8410094F84520012811D1EC
:102A10000EE094F83E0094F84220F7E794F83F0067
:102A200094F84320F2E794F8400094F84420EDE74E
:102A3000012A01D0012030BD022059B1042912D051
:102A4000082919D084F8410084F845000C2944D0A5
:102A5000012540E084F83E0084F842002068C26806
:102A600042F0020210E084F83F0084F8430020683E
:102A7000C26842F0040207E084F8400084F8440091
:102A80002068C26842F00802C2600122206801F09A
:102A9000FFF814492068884214D0B0F1804F11D05B
:102AA000114988420ED0114988420BD01049884202
:102AB00008D01049884205D00F49884202D00F49FA
:102AC000884204D1816801F00701062903D001681A
:102AD00041F001010160284630BD2068C26842F023
:102AE0001002D1E70000014000040040000800404F
:102AF000000C00400004014000400140001800406C
:102B000070B50446006801694FF00005C9438907A4
:102B100015D4C168C943890711D4E91E0161012098
:102B20002077206880698007204602D0FFF790FE5A
:102B300004E000F00DF9204600F09FF925772068A9
:102B40000169C943490717D4C168C943490713D468
:102B50006FF004010161022020772068806910F481
:102B6000407F204602D0FFF773FE04E000F0F0F84B
:102B7000204600F082F9257720680169C9430907DA
:102B800016D4C168C943090712D46FF00801016166
:102B9000042020772068C0698007204602D0FFF714
:102BA00057FE04E000F0D4F8204600F066F92577DF
:102BB00020680169C943C90617D4C168C943C90659
:102BC00013D46FF010010161082020772068C069DC
:102BD00010F4407F204602D0FFF73AFE04E000F0F8
:102BE000B7F8204600F049F9257720680169C94304
:102BF000C90708D1C168C943C90704D1891E016149
:102C0000204600F09FF920680169C943090609D4EC
:102C1000C168C943090605D46FF0800101612046EF
:102C2000FFF7E6FB20680169C943490609D4C1687A
:102C3000C943490605D46FF040010161204600F008
:102C4000B3F920680169C94389060BD4C168C94337
:102C5000890607D46FF0200101612046BDE870406D
:102C6000FFF7C7BB70BD0000F0B587B00446142164
:102C70006846FDF73FFC2F4A216800242E480225B4
:102C8000032691423FD1016841F0010101600168D2
:102C900001F001010591016841F002010160016844
:102CA00001F002010591016841F010010160006826
:102CB00002AA00F0100005908020CDE90005012750
:102CC00082E8D00069461D48FEF75CFF0097CDE919
:102CD0000154CDE9034769461948FEF753FF02AA9C
:102CE000280282E8D000CDE90005164E694630463C
:102CF000FEF748FFA8020090CDE90154CDE9034753
:102D00006946304612E0104A914211D1016841F003
:102D1000040101600068694600F00400059040204D
:102D20000090CDE90154CDE903460848FEF72AFF9B
:102D300007B0F0BD00000140303802400000024002
:102D4000000402400010024000040140000802405C
:102D5000704770B5044690F83C0000260D460128E7
:102D60000FD0012084F83C006AB1042A1DD0082A43
:102D70002FD00C2A3FD00126002084F83C0030469A
:102D800070BD022070BD206800F0AEFF2068816930
:102D900041F0080181612068816921F004018161AD
:102DA000206881692A69114311E0206800F0CCFF96
:102DB0002068816941F4006181612068816921F4A2
:102DC00080618161206881692A6941EA022181610B
:102DD000D2E7206800F0EEFF2068C16941F00801E9
:102DE000C1612068C16921F00401C1612068C16925
:102DF0002A69114311E0206801F010F82068C169C8
:102E000041F40061C1612068C16921F48061C16140
:102E10002068C1692A6941EA0221C161ACE710B5A5
:102E2000040003D094F83D0010B107E0012010BD6C
:102E3000002084F83C00204600F01EF8022084F8B0
:102E40003D00211D206800F0BFFE012084F84600EF
:102E500084F83E0084F83F0084F8400084F8410084
:102E600084F8420084F8430084F8440084F8450064
:102E700084F83D00002010BD7047704710B504462F
:102E8000022249B104290ED0082913D094F8410038
:102E9000012816D0012010BD94F83E000128F9D178
:102EA00084F83E200FE094F83F000128F2D184F826
:102EB0003F2008E094F840000128EBD184F840203E
:102EC00001E084F841200122206800F0E1FE16496B
:102ED0002068164A884201D0904203D1436C43F4E3
:102EE000004343642068884213D0B0F1804F10D073
:102EF0000F4988420DD00F4988420AD00E498842B6
:102F000007D0904205D00D49884202D00C49884232
:102F100004D1816801F00701062903D0016841F05E
:102F200001010160002010BD0000014000040140CB
:102F30000004004000080040000C00400040014038
:102F400000180040124910B5884214D11248114AA5
:102F5000124B018832F811405C6302EB4102B2F877
:102F600020239A63491C89B20180B1F5487F01D3BF
:102F70000021018010BD0A498842FBD100F0B2F85F
:102F80000122BDE8104002210648FEF7F8BE00000D
:102F9000CC00002054420008000000200000014046
:102FA000A4010020000002407047FEE700B585B094
:102FB00014216846FDF79EFA4FF4A04000900120CE
:102FC000019002900320039069460248FEF7DAFD63
:102FD00005B000BD0004024070B50446082516E0A7
:102FE00000F01CFD142000F0FAFF04F0800000F057
:102FF00045FD142000F0F3FF6006040E142000F0DD
:10300000EEFF012000F00AFD142000F0E8FF6D1E25
:10301000EDB24FF00000E3D200F000FDBDE87040DB
:10302000142000F0DCBF10B5012000F027FD1420B3
:1030300000F0D5FF012000F0F1FC142000F0CFFFDC
:10304000002000F01BFD142000F0C9FF002000F05C
:10305000E5FCBDE81040142000F0C1BF10B5002011
:1030600000F0DCFC142000F0BAFF002000F006FDA8
:10307000142000F0B4FF012000F0D0FC142000F078
:10308000AEFF012000F0FAFCBDE81040142000F073
:10309000A6BF10B5052400F0D9FC142000F09FFF56
:1030A000012000F0BBFC142000F099FF05E0641E35
:1030B000A4B2142000F093FF6CB100F0BBFC002818
:1030C000F5D100F0E7FC002000F0A8FC142000F08F
:1030D00086FF002010BD00F0DDFCFFF7BFFF0120E0
:1030E00010BD0000064900204A88521C92B24A8056
:1030F000B2F5FA7F02D3488000F008BC70470000A8
:103100001C0000207FB500211C4800910191029114
:10311000194A0391026001244FF480320461C0E92E
:103120000121047680F820101203C26202254FF0BC
:103130005062C5618262C16080F830404461FEF730
:103140005EFB08B1FEF7AFFA0420CDE9000402905F
:1031500069460A48FEF7AAFA08B1FEF7A4FA062063
:10316000CDE9000569460548FEF7A0FA002801D020
:10317000FEF799FA7FBD00000020014024000020E6
:10318000054808B5016841F480010160006800F459
:103190008000009008BD0000303802402DE9F04763
:1031A00086B014216846FDF7A5F94A480025016854
:1031B00041F010010160016801F010010591016802
:1031C00041F080010160016801F080010591016812
:1031D00041F001010160016801F001010591016800
:1031E00041F004010160016801F0040105910168EA
:1031F00041F002010160016801F0020105910168DE
:1032000041F0080101600068334F00F008000590AC
:10321000012202213846FEF7B2FDDFF8C08000220D
:1032200020214046FEF7ABFDDFF8B49001220221D9
:103230004846FEF7A4FD002245F2E8014846FEF7A5
:103240009EFD142000904FF488100226CDE901065F
:10325000DFF890A069465046FEF794FC0124CDE9C2
:10326000006469463846CDE90245FEF78BFC202014
:1032700003958DE8510069464046FEF783FCCDE991
:10328000006469464846CDE90245FEF77BFC4FF4F1
:10329000A0408DE83100694648460395FEF772FC70
:1032A000E82003268DE8710069464846FEF76AFC6F
:1032B0003002CDE90005694602944846FEF762FCFB
:1032C0000096CDE9015469465046FEF75BFC06B016
:1032D000BDE8F0873038024000000240000802409C
:1032E000000402400010024010B596B000240F9474
:1032F00010941194129413941C2168461494FDF7B1
:10330000F9F8202107A8FDF7F5F82D482B49C0E969
:10331000001441F26701C0E9024180210461C0E963
:103320000541FFF739F908B1FEF7BDF94FF48050B8
:103330000F900FA92248FFF71DFA08B1FEF7B3F965
:103340001F48FFF76CFD08B1FEF7ADF9139413A900
:103350001B481494FFF778F808B1FEF7A4F9602031
:10336000CDE9000404200294CDE903400594002235
:10337000694613480694FFF7ECFC08B1FEF793F991
:10338000042269460E48FFF7E4FC08B1FEF78BF90A
:1033900007940A200894CDE909404FF40050CDE984
:1033A0000B4007A906480E94FFF724F808B1FEF772
:1033B0007AF90348FFF758FC16B010BD0000014031
:1033C000CC00002010B58AB0002423480494059452
:1033D00006940794089409940094019402941D495A
:1033E00003940160A721C0E901144FF6FF71C0E901
:1033F000031480218161FFF7CFF808B1FEF753F97C
:103400004FF48050049004A91348FFF7B3F908B1B2
:10341000FEF749F91048FFF7BEFA08B1FEF743F985
:10342000089408A90C480994FFF70EF808B1FEF7B4
:103430003AF90120CDE900400820CDE90240002200
:1034400069460548FFF718FA002801D0FEF72BF966
:103450000AB010BD000800401401002010B586B06D
:10346000002417480094019402940394049413498F
:10347000059401601421C0E90114611EC0E9031420
:1034800080218161FFF788F808B1FEF70CF94FF44D
:103490008050009069460A48FFF76CF908B1FEF7C2
:1034A00002F9049404A906480594FEF7CDFF00280C
:1034B00001D0FEF7F8F806B010BD0000000C004087
:1034C0005C0100201CB500240E4800940C490194B6
:1034D0000160A721C0E901146321C16080218161DD
:1034E000FFF75AF808B1FEF7DEF800946946054880
:1034F0000194FEF7A9FF002801D0FEF7D4F81CBD07
:1035000000140040A401002010B596B000240F94D0
:1035100010941194129413941C2108A81494FCF78D
:10352000E9FF20216846FCF7E5FF294827490160AB
:10353000A721C0E90114C721C0E903148021C0E913
:103540000541FFF729F808B1FEF7ADF84FF48050B8
:103550000F900FA91E48FFF70DF908B1FEF7A3F869
:103560001B48FFF75CFC08B1FEF79DF84020CDE951
:10357000130413A91648FEF767FF08B1FEF793F886
:10358000602008906320CDE909040B940C940D94FD
:10359000002208A90E480E94FFF7DBFB08B1FEF7E6
:1035A00082F800944FF40050CDE904400294019455
:1035B0000394694606480794FEF71CFF08B1FEF71E
:1035C00072F80348FFF750FB16B010BD000401402D
:1035D000EC010020FEE7FEE770B5002404F1B00026
:1035E000C0B2002100F066F90021022000F062F96B
:1035F0000021102000F05EF900250121002000F0DC
:1036000059F96D1CEDB2802DF7D3641CE4B2082C7F
:10361000E4D370BD10B558B1012810D10021C020ED
:1036200000F048F90021A020BDE8104000F042B9A8
:103630000021C82000F03EF90021A120F4E710BDD0
:1036400010B500218D2000F035F90021142000F084
:1036500031F90021BDE81040AF2000F02BB910B5C2
:103660000021AE2000F026F90021022000F022F90E
:103670000021102000F01EF90021402000F01AF96E
:103680000021B02000F016F90021812000F012F98D
:103690000021CF2000F00EF90021A12000F00AF94E
:1036A0000021A62000F006F90021A82000F002F970
:1036B00000213F2000F0FEF80021AD2000F0FAF8D4
:1036C00000218B2000F0F6F80021332000F0F2F802
:1036D0000021C82000F0EEF80021D32000F0EAF825
:1036E0000021084600F0E6F80021D52000F0E2F8BD
:1036F0000021802000F0DEF80021D92000F0DAF867
:1037000000211F2000F0D6F80021DA2000F0D2F8C6
:103710000021122000F0CEF80021DB2000F0CAF8D2
:103720000021402000F0C6F80021AF2000F0C2F8D0
:10373000BDE81040FFF750BF10B5801CC4B2B031D7
:10374000C8B2002100F0B6F8102040EA14100021A1
:1037500000F0B0F804F00F00BDE81040002100F0C8
:10376000A9B800002DE9F0475E0800241D468946EF
:103770008246082B0ED0680700D0012000EBD5014F
:1037800011FB06F7203A02F0FF0849465046FFF7C2
:10379000D3FF1DE00627F5E7B4FBF6F006FB10406B
:1037A00010B1082D18D008E0082D15D04946481C46
:1037B00000F0FF095046FFF7BFFF102D0AD109495D
:1037C00001EB08100121005D00F074F8641CA4B244
:1037D000BC42E1D3BDE8F087034908EB480001EBA8
:1037E0004000EFE7F44D0008CC4B00082DE9F05FF6
:1037F0000026DDF828801D4692468B4681463746D6
:10380000B8F1080F00D10226002427E0281B401E33
:10381000C1B20A2000F082FCBAFBF0F20A21B2FB2E
:10382000F1F001FB102027B9691E8C4201DA48B182
:1038300001273030C2B206EB580101FB0490C0B240
:10384000434606E006EB580101FB0490C0B2434634
:1038500020225946FFF786FF641CE4B2AC42D5D360
:10386000BDE8F09F2DE9F0411E4617468846044604
:1038700000250BE06D1CEDB2334641462046FFF7B4
:1038800071FF082E07D004EB5600C4B27A5D002AFF
:10389000F0D1BDE8F081A41DE4B2F7E710B5FFF761
:1038A000DEFEFFF7CDFE0020FFF7B4FEBDE81040BE
:1038B000FFF792BE70B50C460546FFF7B4FB7820C3
:1038C000FFF78AFBFFF7E5FB0CB1402000E000208A
:1038D000FFF782FBFFF7DDFB2846FFF77DFBFFF7D5
:1038E000D8FBBDE87040FFF7B9BB10B5012400F06C
:1038F000E9F8204600F074F800F048F8002803D1F9
:10390000641CE4B2042CF2D910BD000038B50024C8
:103910008DF80040FFF7E9FF6946FDF749FE0128F1
:1039200001D0002038BD16489DF8001040F21F322B
:10393000416014480D2906D00E2909D00F290DD059
:1039400010291BD111E001880A2905D30A3912E098
:10395000018809B1491E0EE002800FE0018840F2A3
:103960001E32914209D8491C05E0018840F2153207
:10397000914202D80A31018000E00480012038BD64
:103980001C000020020000207047000070B5124D9E
:1039900004464FF480712846FEF7ECF988B16915AA
:1039A0002846FEF7E7F970B10C4D01212846FEF7D5
:1039B000E1F960B102212846FEF7DCF948B10020A8
:1039C00070BDFD2000E0FE2000EB840002E0FF203F
:1039D000FAE7A000C0B270BD00040240001002402F
:1039E00010B504460C48012C06D0022C07D0032C3D
:1039F0000BD0042C07D10BE00022082101E00022AB
:103A00002021FEF7BCF9204610BD00224021F8E736
:103A100000228021F5E7000000040240044B4FF42F
:103A2000804108B1012200E000221846FEF7A7B944
:103A30000004024010B54FF480510348FEF79AF994
:103A4000012800D0002010BD0004024000B585B060
:103A500014216846FCF74EFD4FF480500090002082
:103A60000190012002900320039069460248FEF76E
:103A700089F805B000BD000000040240044B4FF47B
:103A8000805108B1012200E000221846FEF777B904
:103A90000004024000B585B014216846FCF72AFDF9
:103AA0004FF48050009011200190002002900320DC
:103AB000039069460248FEF765F805B000BD0000B6
:103AC0000004024010B50B4C012208212046FEF7ED
:103AD00056F9012220212046FEF751F9012240210A
:103AE0002046FEF74CF920460122BDE81040802117
:103AF000FEF745B9000402407047FEF74BB90000DD
:103B000030B593B030216846FCF7F4FC14210CA8C2
:103B1000FCF7F0FC1D480025016841F08051016070
:103B2000006800F0805011901948016841F480410C
:103B300001600068022400F4804011900120009090
:103B4000000401908001CDE9064008AA0420A821C4
:103B500082E813000B906846FEF780FA08B172B64F
:103B6000FEE70CA90F2081E831004FF4A0500F9020
:103B70004FF48050109005210CA8FEF7A5F90028FD
:103B800001D072B6FEE713B030BD000040380240ED
:103B9000007000400248016841F470010160704704
:103BA00088ED00E00148FEF7ABBF0000CC0000202C
:103BB0000148FEF7A5BF0000140100200148FEF7F0
:103BC0009FBF0000A4010020F0B50268254C264DDF
:103BD000264E274F274B4FF0804CA04209D060451E
:103BE00007D0A84205D0B04203D0B84201D09842D5
:103BF00004D122F0700E4A6842EA0E02A0421BD0A5
:103C0000604519D0A84217D0B04215D0B84213D0A1
:103C1000984211D0184DA8420ED0184DA8420BD092
:103C2000174DA84208D0174DA84205D0164DA842FE
:103C300002D0164DA84203D122F44075CA682A4327
:103C40004D6922F080022A4302608A68C2620A68D3
:103C50008262A04201D0984201D109690163012129
:103C60004161F0BD00000140000400400008004038
:103C7000000C0040000401400040014000440140AD
:103C80000048014000180040001C00400020004097
:103C900010B501F01F030121046A99408C430462AE
:103CA000016A9A401143016210BD10B501F01F0373
:103CB0000421046A99408C430462016A9A401143CA
:103CC000016210BD10B5846842EA032224F47F44E7
:103CD0000A432243826010BD826822F070020A43C8
:103CE00042F0070181607047F0B5026A22F00102DC
:103CF0000262036A42688469124E24F073050C68FC
:103D00002C4323F002058B682B430D4DA84201D0B4
:103D1000B04205D123F00807CB683B4323F00403EE
:103D2000A84201D0B04205D14D6922F4407215433A
:103D30008A692A4342608461496841630362F0BD35
:103D40000000014000040140F0B5026A22F01002B8
:103D50000262026A436884690D6824F4E64444EA16
:103D600005248D6822F0200242EA05120F4D104E04
:103D7000A84201D0B04206D1CF6822F0800242EAC8
:103D8000071222F04002A84201D0B04207D14D698B
:103D900023F4406343EA85038D6943EA8503436066
:103DA0008461496881630262F0BD00000000014047
:103DB00000040140F0B5026A22F480720262026AD5
:103DC0004368C46922F4007224F073050C68124E33
:103DD0002C438D6842EA05220E4DA84201D0B04224
:103DE00006D1CF6822F4006242EA072222F4806200
:103DF000A84201D0B04207D14D6923F4405343EAB1
:103E000005138D6943EA05134360C4614968C163C2
:103E10000262F0BD000001400004014030B5026ABA
:103E200022F480520262046A4268C3690D6823F476
:103E3000E64343EA05238D6824F4005444EA05343C
:103E4000084DA84202D0084DA84204D14D6922F481
:103E5000804242EA85124260C3614968016404629B
:103E600030BD0000000001400004014010B5036AAD
:103E7000046A24F001040462846924F0F00444EA32
:103E8000021423F00A020A438461026210BD00009A
:103E900070B5046A24F0010404628469056A154E51
:103EA000B04214D0B0F1804F11D0134EB0420ED0BA
:103EB000124EB0420BD0124EB04208D0114EB0425A
:103EC00005D0114EB04202D0104EB04203D124F0C2
:103ED0000304144301E044F001041A0724F0F00441
:103EE00044EA126225F00A0301F00A0119438261D3
:103EF000016270BD00000140000400400008004065
:103F0000000C004000040140004001400018004047
:103F100010B5036A23F0100303628369046A23F473
:103F2000704343EA023224F0A00343EA01118261A4
:103F3000016210BD30B5046A24F010040462846983
:103F4000056A24F4407444EA022222F470444FF6D5
:103F5000FF7202EA03322243A02425F0A00304EA00
:103F6000011119438261016230BDFEE7202202493E
:103F70000248FDF7BBBC00005402002024000020D2
:103F800003B401984100009850EAC12018BF0420F2
:103F90004A0D18BF40F0010040F2FF72B2EB515FD2
:103FA00008BF40F00200012808BF052002B070479A
:103FB0000907090E002804DB00F1E02080F8001456
:103FC000704700F00F0000F1E02080F8141D7047EA
:103FD00030380A2801D201207047002070470021A4
:103FE00000E0491C8142FCD3704700002DED028B9C
:103FF00086B0FDF7D7FEFFF783FDFFF7CFF8FFF799
:104000002DFAFFF771F9FFF75DFAFFF7B9F8FFF73F
:1040100079F8FFF7D7F9FFF777FAFEF7C7FFFFF751
:104020003DFC00213148FEF729FF00212F48FEF713
:1040300053FA04212D48FEF721FF04212B48FEF7F7
:104040004BFA2A48FEF756FB2948FEF753FB00219E
:104050002848FEF7CFFC284C0021A0886080274824
:10406000FEF70CFFFFF782FF9FED258A254E4FF4E8
:10407000C8770825A06800F075F841EC100B22A164
:1040800053EC102B01A8FCF773F90021082301AAB7
:104090000846FFF7E7FB0095042362880221002011
:1040A000FFF7A4FB6088A188401A00EE100AB8420E
:1040B00004DCB8EEC00A20EE080A05E0F8EEC00AFB
:1040C0009FED150A10EE880A05230421002084EDD7
:1040D000020A00953288FFF789FB00950523728854
:1040E00019460020FFF782FBC4E70000CC00002047
:1040F000A40100201401002000000020EC01002099
:104100006666E63E5402002070686173653A2537A2
:104110002E326620200000000000B4430246012039
:1041200000E05043491EC9B2FBD2704710B50029C8
:104130000AD00878002807D005487844FCF758FDD5
:10414000002801D0002010BD0248784410BD0000B6
:104150003E140000361400000808A0F500114FEAD4
:104160003101704743004FEAD30C4FEA3C0C434007
:104170001FBF40070CF1605113F0FE4F70471CF059
:10418000006F03D100200CF0004170470CF0004399
:1041900043EA507010B540EACC0000F00EF800BFC2
:1041A000000000924FEA0001FFF7D6BF4FF0004138
:1041B0004FF00000A1F5002170470EF1020E2EF025
:1041C000030E5EF8044B244204D44FEA4102B2F1DC
:1041D0007F4F11D84FEA4003B3F17F4F0CD80ED177
:1041E0004FEAD07CB2F17F4F0CEB4C0C0CF1020C7F
:1041F00008BF4CEBD17C04E04FF0080C01E04FEA23
:10420000D17C0CEB4C0324FA03F404F00704B4F162
:10421000040C06D20EEB840CBDE810404CF0010CEF
:104220006047DFE80CF0070802024FF00040A0F5FD
:10423000800010BD0846420018BFD2F1807288BFCE
:1042400000F0004010BD4FF04070E1EE100A7047E2
:10425000FCF751BAE007ED07FA070808150822082D
:104260002F083C0849085708640871087E088B0825
:104270009808A508B308C008CD08DA08E708F408CC
:1042800001090E091B092809350942094E095B0974
:104290006809750982098F099B09A809B509C1092F
:1042A000CE09DB09E709F409000A0D0A190A250AF3
:1042B000320A3E0A4A0A570A630A6F0A7B0A870AC9
:1042C000930A9F0AAB0AB70AC30ACF0ADB0AE60AB7
:1042D000F20AFE0A090B150B200B2C0B370B430BB4
:1042E0004E0B590B640B6F0B7A0B850B900B9B0BD2
:1042F000A60BB10BBB0BC60BD10BDB0BE60BF00B0C
:10430000FA0B050C0F0C190C230C2D0C370C410C5F
:104310004B0C540C5E0C680C710C7B0C840C8D0CDB
:10432000960CA00CA90CB20CBB0CC30CCC0CD50C7D
:10433000DD0CE60CEE0CF70CFF0C070D0F0D180D45
:104340001F0D270D2F0D370D3E0D460D4D0D550D33
:104350005C0D630D6A0D710D780D7F0D860D8D0D51
:10436000930D9A0DA00DA70DAD0DB30DB90DBF0D99
:10437000C50DCA0DD00DD60DDB0DE10DE60DEB0D13
:10438000F00DF50DFA0DFF0D040E080E0D0E110EB9
:10439000150E1A0E1E0E220E260E2A0E2D0E310E90
:1043A000340E380E3B0E3E0E420E450E480E4A0E9F
:1043B0004D0E500E520E550E570E590E5B0E5D0EE1
:1043C0005F0E610E630E640E660E670E690E6A0E56
:1043D0006B0E6C0E6D0E6D0E6E0E6F0E6F0E700E00
:1043E000700E700E700E700E700E700E6F0E6F0EDF
:1043F0006E0E6D0E6D0E6C0E6B0E6A0E690E670EF4
:10440000660E640E630E610E5F0E5D0E5B0E590E3E
:10441000570E550E520E500E4D0E4A0E480E450EBA
:10442000420E3E0E3B0E380E340E310E2D0E2A0E6D
:10443000260E220E1E0E1A0E150E110E0D0E080E51
:10444000040EFF0DFA0DF50DF00DEB0DE60DE10D6F
:10445000DB0DD60DD00DCA0DC50DBF0DB90DB30DB9
:10446000AD0DA70DA00D9A0D930D8D0D860D7F0D31
:10447000780D710D6A0D630D5C0D550D4D0D460DDA
:104480003E0D370D2F0D270D1F0D180D0F0D070DAC
:10449000FF0CF70CEE0CE60CDD0CD50CCC0CC30CB1
:1044A000BB0CB20CA90CA00C960C8D0C840C7B0CD4
:1044B000710C680C5E0C540C4B0C410C370C2D0C21
:1044C000230C190C0F0C050CFA0BF00BE60BDB0B95
:1044D000D10BC60BBB0BB10BA60B9B0B900B850B2B
:1044E0007A0B6F0B640B590B4E0B430B370B2C0BDA
:1044F000200B150B090BFE0AF20AE60ADB0ACF0AAB
:10450000C30AB70AAB0A9F0A930A870A7B0A6F0A93
:10451000630A570A4A0A3E0A320A250A190A0D0A8C
:10452000000AF409E709DB09CE09C109B509A809A0
:104530009B098F098209750968095B094E094209BF
:10454000350928091B090E090109F408E708DA08EA
:10455000CD08C008B308A50898088B087E08710824
:104560006408570849083C082F082208150808085D
:10457000FA07ED07E007D307C607B807AB079E07A2
:1045800091078407770769075C074F0742073507DC
:1045900028071B070D070007F306E606D906CC0619
:1045A000BF06B206A50698068B067E06720665064D
:1045B00058064B063E063106250618060B06FF0573
:1045C000F205E505D905CC05C005B305A7059B0592
:1045D0008E058205760569055D0551054505390598
:1045E0002D05210515050905FD04F104E504DA048E
:1045F000CE04C204B704AB04A004940489047D046F
:10460000720467045C04510446043B04300425042E
:104610001A040F040504FA03EF03E503DA03D003D9
:10462000C603BB03B103A7039D03930389037F0361
:1046300075036C03620358034F0345033C033303C4
:104640002A03200317030E030503FD02F402EB0205
:10465000E302DA02D202C902C102B902B102A8021F
:10466000A10299029102890282027A0273026B020C
:1046700064025D0256024F02480241023A023302CE
:104680002D0226022002190213020D020702010266
:10469000FB01F601F001EA01E501DF01DA01D501D4
:1046A000D001CB01C601C101BC01B801B301AF010A
:1046B000AB01A601A2019E019A01960193018F010F
:1046C0008C018801850182017E017B0178017601E0
:1046D000730170016E016B0169016701650163017E
:1046E00061015F015D015C015A01590157015601E9
:1046F000550154015301530152015101510150011F
:10470000500150015001500150015001510151011F
:1047100052015301530154015501560157015901EA
:104720005A015C015D015F0161016301650167017F
:1047300069016B016E0170017301760178017B01E3
:104740007E018201850188018C018F019301960110
:104750009A019E01A201A601AB01AF01B301B8010C
:10476000BC01C101C601CB01D001D501DA01DF01D5
:10477000E501EA01F001F601FB01010207020D0269
:1047800013021902200226022D0233023A024102CC
:1047900048024F0256025D0264026B0273027A0203
:1047A0008202890291029902A102A802B102B90211
:1047B000C102C902D202DA02E302EB02F402FD02F4
:1047C00005030E03170320032A0333033C034503A9
:1047D0004F03580362036C0375037F03890393033C
:1047E0009D03A703B103BB03C603D003DA03E503AC
:1047F000EF03FA0305040F041A04250430043B04F4
:10480000460451045C04670472047D048904940422
:10481000A004AB04B704C204CE04DA04E504F10436
:10482000FD040905150521052D0539054505510529
:104830005D056905760582058E059B05A705B3050F
:10484000C005CC05D905E505F205FF050B061806E0
:10485000250631063E064B065806650672067E069C
:104860008B069806A506B206BF06CC06D906E60654
:10487000F30600070D071B072807350742074F07F8
:104880005C0769077707840791079E07AB07B8079E
:10489000C607D307E007ED07FA070808150822083E
:1048A0002F083C0849085708640871087E088B08DF
:1048B0009808A508B308C008CD08DA08E708F40886
:1048C00001090E091B092809350942094E095B092E
:1048D0006809750982098F099B09A809B509C109E9
:1048E000CE09DB09E709F409000A0D0A190A250AAD
:1048F000320A3E0A4A0A570A630A6F0A7B0A870A83
:10490000930A9F0AAB0AB70AC30ACF0ADB0AE60A70
:10491000F20AFE0A090B150B200B2C0B370B430B6D
:104920004E0B590B640B6F0B7A0B850B900B9B0B8B
:10493000A60BB10BBB0BC60BD10BDB0BE60BF00BC5
:10494000FA0B050C0F0C190C230C2D0C370C410C19
:104950004B0C540C5E0C680C710C7B0C840C8D0C95
:10496000960CA00CA90CB20CBB0CC30CCC0CD50C37
:10497000DD0CE60CEE0CF70CFF0C070D0F0D180DFF
:104980001F0D270D2F0D370D3E0D460D4D0D550DED
:104990005C0D630D6A0D710D780D7F0D860D8D0D0B
:1049A000930D9A0DA00DA70DAD0DB30DB90DBF0D53
:1049B000C50DCA0DD00DD60DDB0DE10DE60DEB0DCD
:1049C000F00DF50DFA0DFF0D040E080E0D0E110E73
:1049D000150E1A0E1E0E220E260E2A0E2D0E310E4A
:1049E000340E380E3B0E3E0E420E450E480E4A0E59
:1049F0004D0E500E520E550E570E590E5B0E5D0E9B
:104A00005F0E610E630E640E660E670E690E6A0E0F
:104A10006B0E6C0E6D0E6D0E6E0E6F0E6F0E700EB9
:104A2000700E700E700E700E700E700E6F0E6F0E98
:104A30006E0E6D0E6D0E6C0E6B0E6A0E690E670EAD
:104A4000660E640E630E610E5F0E5D0E5B0E590EF8
:104A5000570E550E520E500E4D0E4A0E480E450E74
:104A6000420E3E0E3B0E380E340E310E2D0E2A0E27
:104A7000260E220E1E0E1A0E150E110E0D0E080E0B
:104A8000040EFF0DFA0DF50DF00DEB0DE60DE10D29
:104A9000DB0DD60DD00DCA0DC50DBF0DB90DB30D73
:104AA000AD0DA70DA00D9A0D930D8D0D860D7F0DEB
:104AB000780D710D6A0D630D5C0D550D4D0D460D94
:104AC0003E0D370D2F0D270D1F0D180D0F0D070D66
:104AD000FF0CF70CEE0CE60CDD0CD50CCC0CC30C6B
:104AE000BB0CB20CA90CA00C960C8D0C840C7B0C8E
:104AF000710C680C5E0C540C4B0C410C370C2D0CDB
:104B0000230C190C0F0C050CFA0BF00BE60BDB0B4E
:104B1000D10BC60BBB0BB10BA60B9B0B900B850BE4
:104B20007A0B6F0B640B590B4E0B430B370B2C0B93
:104B3000200B150B090BFE0AF20AE60ADB0ACF0A64
:104B4000C30AB70AAB0A9F0A930A870A7B0A6F0A4D
:104B5000630A570A4A0A3E0A320A250A190A0D0A46
:104B6000000AF409E709DB09CE09C109B509A8095A
:104B70009B098F098209750968095B094E09420979
:104B8000350928091B090E090109F408E708DA08A4
:104B9000CD08C008B308A50898088B087E087108DE
:104BA0006408570849083C082F0822081508080817
:104BB000FA07ED07000610160006101600000000A8
:104BC00000000000010203040607080900000000BD
:104BD00000000000002F0000000007000700001484
:104BE0007F147F1400242A7F2A1200626408132392
:104BF00000364955225000000503000000001C2229
:104C00004100000041221C000014083E0814000866
:104C1000083E0808000000A0600000080808080816
:104C2000000060600000002010080402003E5149AE
:104C3000453E0000427F400000426151494600214C
:104C400041454B31001814127F1000274545453966
:104C5000003C4A49493000017109050300364949C1
:104C6000493600064949291E00003636000000007A
:104C700056360000000814224100001414141414C5
:104C8000000041221408000201510906003249596E
:104C9000513E007C1211127C007F49494936003E8A
:104CA00041414122007F4141221C007F4949494145
:104CB000007F09090901003E4149497A007F08083F
:104CC000087F0000417F4100002040413F01007FFC
:104CD00008142241007F40404040007F020C027FC8
:104CE000007F0408107F003E4141413E007F0909DA
:104CF0000906003E4151215E007F09192946004600
:104D0000494949310001017F0101003F4040403FD6
:104D1000001F2040201F003F4038403F0063140820
:104D200014630007087008070061514945430000FB
:104D30007F41410000552A552A55000041417F001E
:104D40000004020102040040404040400000010213
:104D50000400002054545478007F484444380038FC
:104D60004444442000384444487F00385454541884
:104D700000087E0901020018A4A4A47C007F080496
:104D800004780000447D4000004080847D00007F66
:104D9000102844000000417F4000007C0418047883
:104DA000007C0804047800384444443800FC24247F
:104DB00024180018242418FC007C08040408004867
:104DC0005454542000043F444020003C4040207C88
:104DD000001C2040201C003C4030403C0044281077
:104DE0002844001CA0A0A07C004464544C4414142B
:104DF0001414141400000000000000000000000063
:104E000000000000000000F8000000000000003377
:104E10003000000000100C06100C0600000000001E
:104E20000000000040C07840C0784000043F040407
:104E30003F040400007088FC08300000001820FFC8
:104E4000211E0000F008F000E018000000211C0303
:104E50001E211E0000F00888700000001E2123247F
:104E60001927211010160E0000000000000000009D
:104E700000000000000000E018040200000000072D
:104E80001820400000020418E00000000040201834
:104E900007000000404080F0804040000202010F07
:104EA00001020200000000F0000000000101011FEB
:104EB00001010100000000000000000080B070004F
:104EC00000000000000000000000000000010101DF
:104ED000010101010000000000000000003030006E
:104EE0000000000000000000806018040060180648
:104EF0000100000000E010080810E000000F102082
:104F000020100F00001010F8000000000020203FCB
:104F10002020000000700808088870000030282455
:104F200022213000003008888848300000182020F6
:104F300020110E000000C02010F80000000704241B
:104F4000243F240000F80888880808000019212060
:104F500020110E0000E0108888180000000F1120BA
:104F600020110E0000380808C83808000000003F73
:104F7000000000000070880808887000001C2221D2
:104F800021221C0000E010080810E000000031227F
:104F900022110F00000000C0C0000000000000301F
:104FA0003000000000000080000000000000806071
:104FB00000000000000080402010080000010204F2
:104FC00008102000404040404040400004040404D9
:104FD0000404040000081020408000000020100895
:104FE00004020100007048080808F00000000030CA
:104FF00036010000C030C828E810E0000718272458
:1050000023140B000000C038E0000000203C230205
:105010000227382008F8888888700000203F202068
:1050200020110E00C030080808083800071820209A
:105030002010080008F808080810E000203F202091
:1050400020100F0008F88888E8081000203F202072
:105050002320180008F88888E8081000203F200066
:1050600003000000C030080808380000071820209E
:10507000221E020008F808000008F808203F21015D
:1050800001213F20000808F8080800000020203F08
:105090002020000000000808F8080800C080808078
:1050A0007F00000008F888C028180800203F200171
:1050B0002638200008F8080000000000203F2020CB
:1050C0002020300008F8F800F8F80800203F003FE2
:1050D000003F200008F830C00008F808203F2000FA
:1050E00007183F00E01008080810E0000F1020200B
:1050F00020100F0008F808080808F000203F2101E0
:1051000001010000E01008080810E0000F18242436
:1051100038504F0008F8888888887000203F2000A9
:10512000030C30200070880808083800003820215F
:1051300021221C00180808F8080818000000203F69
:105140002000000008F808000008F808001F2020D0
:1051500020201F000878880000C8380800000738A1
:105160000E010000F80800F80008F800033C0700F2
:10517000073C0300081868808068180820302C035A
:10518000032C30200838C800C83808000000203F31
:105190002000000010080808C83808002038262120
:1051A00020201800000000FE020202000000007F24
:1051B00040404000000C30C0000000000000000132
:1051C0000638C00000020202FE000000004040401D
:1051D0007F00000000000402020204000000000042
:1051E00000000000000000000000000080808080BF
:1051F00080808080000202040000000000000000A7
:10520000000000000000808080800000001924223F
:1052100022223F2008F8008080000000003F11207B
:1052200020110E000000008080800000000E112080
:1052300020201100000000808088F800000E11205E
:1052400020103F200000808080800000001F22226C
:1052500022221300008080F0888888180020203FD8
:10526000202000000000808080808000006B9494EB
:105270009493600008F8008080800000203F2100A7
:1052800000203F2000809898000000000020203F70
:1052900020200000000000809898000000C080805E
:1052A000807F000008F8000080808000203F2402FA
:1052B0002D302000000808F8000000000020203FEA
:1052C000202000008080808080808000203F20009F
:1052D0003F20003F8080008080800000203F210030
:1052E00000203F200000808080800000001F2020E0
:1052F00020201F00808000808000000080FFA1200F
:1053000020110E000000008080808000000E11201F
:1053100020A0FF80808080008080800020203F21AE
:105320002000010000008080808080000033242461
:1053300024241900008080E0808000000000001F0D
:10534000202000008080000000808000001F2020BE
:1053500020103F20808080000080808000010E307F
:105360000806010080800080008080800F300C03E0
:105370000C300F0000808000808080000020312EE3
:105380000E312000808080000080808080818E70BF
:105390001806010000808080808080000021302C71
:1053A0002221300000000000807C0202000000008A
:1053B000003F404000000000FF000000000000002F
:1053C000FF0000000002027C800000000040403F1F
:1053D00000000000000601010202040400000000B9
:1053E000000000000000F010101010FF101010104E
:1053F000F000000000000F04040404FF040404048F
:105400000F0000004040405F555555755555555F9C
:10541000404040000040200F094989790909090FDF
:105420002040000000FE02424ACA4A4ACA4A4A4292
:1054300002FE000000FF40504C4340404F50505C83
:1054400040FF00000000F888888888FF88888888E6
:10545000F800000000001F080808087F8888888876
:105460009F80F00080828282828282E2A2928A867B
:1054700082808000000000000040807F000000006B
:1054800000000000101010FF109008888888FF8826
:10549000888808000444827F01808040432C1028C3
:1054A000468180000010101010D030FF30D0121C48
:1054B0001010000010080402010000FF00000102AB
:1054C0000408100002400000000000A000000000DE
:1054D00005400000000000C8000000000C40000073
:1054E0000000409C00000000194000000020BCBEED
:1054F0000000000034400000BFC91B8E0000000403
:10550000B5400000504BCFD06607E2CF010000004D
:105510006C4100003E8251AADFEEA734010000007A
:10552000D9420000DCB5A0E23A301F97FFFFFFFF31
:10553000B4450000FD25A0C8E9A3C14FFFFFFFFF50
:10554000FF3F00000000008000000000FF3F00005F
:1055500000000080000000009455000800000020BA
:1055600024000000C4010008B855000824000020F1
:10557000D4080000E00100081C0000004300000007
:10558000F8FFFFFF0C0000000E0000000F000000FD
:105590002E000000000000000000000000000000DD
:1055A0000100000010000000000000000024F400D2
:0855B0000000000000000000F3
:040000050800018965
:00000001FF
